:04000000803115280E
:100008007E1480312000111C1328803097001110B5
:100018000130F00070082300C8070130C7007E10C7
:100028000900803117287130840088308500E43059
:100038008600013087000A3088316B208031FC014E
:100048002100E901603084000130850010308831DA
:1000580065208031A030840001308500443088312B
:100068006520803120308400023085004830883196
:1000780065208031A0308400023085000A30883144
:1000880065207E10200080314928FC30210099002D
:10009800903027009B0023008C018E0120000E1158
:1000A8000E1221000E110E128E16893020009800B3
:1000B8008030970000309600111021001114C030D4
:1000C8008B008331882380318931202180318D3123
:1000D800832580312400ED016D08203E8600023022
:1000E80087006D088731F1278031810001302100B8
:1000F800E80068082400ED0720306D02031C702812
:10010800200803199328A101A201FF30A30003309E
:10011800A400A501A601FF30A7000330A800EE0146
:10012800EB01E8018231A12280312300480803193C
:1001380011298B1348082400EA002300C8018B17F3
:1001480024006A082100E80068082300C307431C4C
:10015800B02820000E16B22820000E122400E90153
:1001680020008E1AD82824006A082100E8006808B0
:100178002400EB070B306B02031CC9280130210057
:10018800E80068082300C507D52806306B02031C61
:10019800CF280A30D02801302100E8006808230061
:1001A800C4072400E901E90A043023004302031CC0
:1001B800E52824006808031DE528013089313E211F
:1001C80080313C3023004302031CF6282400E90157
:1001D800E90A3C302300C30201302100E800680826
:1001E8002300C4073C304402031C0A292400E90107
:1001F800E90A3C302300C40201302100E800680805
:100208002300C507183045020318C50124006908F2
:10021800031911298D318325803120008E1E16295E
:100228002400EB01203021006902031C96283D00C0
:100238008E1896282400E801E80A8431D4248031F5
:1002480022006D08031D9628230047080319482932
:100258000A30F100430889319C218031303EEA00A0
:100268000A30F10043088831EA208031303EEB0043
:10027800E430F1000130F2000930F30088317B20CE
:1002880080312300C701962824006E08203C2000F6
:10029800E00024006E08403E8C3124248031240084
:1002A800EC006C08031996286E08403EF1000230F5
:1002B800F2006C08F30088317B20803124006C0840
:1002C8002100E80068082400EE076E080319752964
:1002D8006E083F3E8600023087000D300106031984
:1002E800792920306E06031D9628EE018631812675
:1002F8008031962820005203031D942950081F3985
:10030800003A031D94292200E81703302000510603
:10031800031D92292300D601D60A94292300D60169
:1003280020005208031D080050081F39023A031D17
:10033800080054080F39003A0319080054080F3907
:10034800E90003306902031808002030210069061B
:10035800031D08002200E8172000D41BC2295408F6
:100368000F390907A73E860001308700403FEE009D
:10037800413FEF0054080F39B53ED02954080F39D2
:100388000907603E860001308700403FEE00413F8C
:10039800EF0054080F39B83E860001308700010885
:1003A800ED006D18E129FB30E900FF30EA006E0826
:1003B8006905EE006F086A05E62904306E04EE0050
:1003C80000306F04EF00D41BF52954080F390907D2
:1003D800A73E8600013087006E08C03F6F08C13F06
:1003E800002A54080F390907603E8600013087004B
:1003F8006E08C03F6F08C13F03305106031D222A13
:100408006E0886006F088700811F172AD41B102AE0
:1004180054080F39B53E132A54080F39B83E8600E0
:100428000130870081146E0886006F088700011567
:100438006E0886006F0887008117080004306E0672
:10044800EE0000306F06EF006E0886006F08870028
:10045800811F4B2A7F30E9006E0886006F088700ED
:10046800690881056E0886006F0887000117053046
:10047800E3000030E4006F08E6006E08E500023093
:10048800E7000030E8008931BD218131502A6E082B
:1004980086006F0887000117043020006E06EE0002
:1004A80000306F06EF00ED185F2A6E0886006F08AF
:1004B8008700811F842AD41B652A54080F39B53E4A
:1004C800682A54080F39B83E860001308700811029
:1004D8003B30E9006E0886006F08870069088105CF
:1004E8000530E3000030E4006F08E6006E08E50020
:1004F8000230E7000030E8008931BD2181318C2AC3
:100508003B30E9006E0886006F088700690881059E
:10051800200054080F39983EE900EA010E30EA3D00
:100528006908EB006A08EC00FE30E9006B088600F9
:100538006C08870069088105080021006908031D07
:10054800B52A3D008E019201163091009F30970028
:100558007B3092008E19B22A8E15AE2A2100E9014D
:10056800E90A6903031DC22A3D008E1AC22A9001B6
:1005780092011214121602302100E9003D001019F0
:10058800121DCF2AFB302100E40064083D009005CD
:1005980089315C2182313D008E1CD52A2000121140
:1005A80008001018121CE22A833188238231043093
:1005B800E900FE30E40064083D009005101A121EA0
:1005C800E82A8831D02082313D00101F102B121FDD
:1005D800FC2A73302000E3000030E4000030E5001E
:1005E800E6000130E7000030E8008931BD218231A2
:1005F800BF302100E40064083D00900588318C205C
:100608008231520803190A2B0130D2025208031D05
:10061800102B8F31202782313D00901A921E172B04
:100628008931DF2182319018921C2B2BFF3020005A
:10063800E3007F30E4000030E500E6000130E70029
:100648000030E8008931BD2182313D00930104303A
:10065800210069020318332B2000121108003D0005
:10066800921D852B2100E501822B0F082200EF0047
:100678006F0C2100E400E40C640C0F392300D40053
:10068800F7302100E40064083D00900522006F194E
:10069800512B23005408B53E542B23005408B83E70
:1006A800860001308700010801392100E40001308B
:1006B800E40601086406FE39640681002300540834
:1006C800031D6A2B8B31DD238231792B7230200098
:1006D800E3000030E4006F30E5000130E600003050
:1006E800E700E8008931BD21823101302100E400B2
:1006F8006408E507043065020318852B3D0090194E
:10070800392B200012110800210012113D0093011D
:10071800900198010E30F6009930F500F701750840
:1007280086007608870081010130F5070030F63D24
:100738000130F1007108F70702307702031C932B90
:1007480016303D0091009F3097007B309200F801F1
:100758007808F1000130F135FF3E031DAF2B7135EC
:10076800203E860087010030C03F0030C13FC23FB5
:10077800C33F0130F1007108F8070C307802031C00
:10078800AC2B3D000E1796010E120E13F730F10038
:10079800710890052200E8012300A201A301A40129
:1007A8003D009019CA2B01302300D1000130D00040
:1007B800CF01CE01D501F8017835603E86000130C1
:1007C80087000030C03FC13F7835A73E8600013022
:1007D80087000030C03FC13F7808B83E860001302E
:1007E800870081017808B53E8600013087008101C5
:1007F8000130F1007108F80703307802031CE02B80
:1008080028302200E0000030E10016303D0098005A
:100818005030F1000030F200FF307105F3007F30F6
:100828007205F40073082000A2007408A3000830C1
:10083800A1000430A000A0172300E3010030B40099
:100848000030B3000030B2000030B100CD0121000B
:10085800E90108007C0886008701413FFA007A0810
:10086800F500F60176082402031D3C2C75082302C6
:100878000318402C2308FA007A08F500F6017508D9
:10088800A3027608A43BF9017A08790203185F2CC1
:1008980020088600013087007908583E84008501C9
:1008A800000881000130F5007508A0070130F50047
:1008B8007508F907482C230824040319A02C2200E2
:1008C8006B08013EF50000306C3DF60075088600A7
:1008D80076088700083081005830F5000030F600AF
:1008E800FF307505F7007F307605F8006B08860045
:1008F8006C08870042317708C03F7808C13F7C0800
:1009080086008701011B942C6B0886006C08870001
:10091800483081006B0886006C0887008117080042
:100928006B0886006C088700083081006B08860019
:100938006C0887008117080022006B08013EF5004B
:1009480000306C3DF6007508860076088700083090
:1009580081005030F5000030F600FF307505F700D3
:100968007F307605F8006B0886006C0887004231F6
:100978007708C03F7808C13F6B0886006C0887007D
:10098800043081006B0886006C08870081172300FB
:10099800A21322006E08031D08008F3120270800CB
:1009A80023003B083C040319DF2C3B0886003C0865
:1009B8008700811B0800033022006D060319ED0132
:1009C8006D080319080002306D06031DFD2CF101A6
:1009D800F10A0030F200F300F40102308531FE25FF
:1009E80072082300BC007108BB0003302200ED0030
:1009F80008006D03031D0800413023004B02031C4F
:100A0800072D4030082D4B082000E2006208230023
:100A18004B02CB00A030BF0020006208E100230099
:100A28004A0803192F2D4B2D23003F088600870104
:100A38004108840042088500000881000130200038
:100A4800E00060082300BF070130C1070030C23D45
:100A580001302000E1022000610803194F2D182DF4
:100A680023003F088600870141088400420885006A
:100A78000008810001302000E00060082300BF0763
:100A88000130C1070030C23D01302000E1022000E2
:100A98006108031D342D23004B08031D5D2D4030D4
:100AA80020006206031D5A2D02305B2D0330220000
:100AB800ED00F101F10AA030F2000030F30020004F
:100AC8006208F40002308531FE2572082300BC005C
:100AD8007108BB0008003D000E122200E81BB92D6A
:100AE8002300A21F822D0230D8004E08031D7E2D40
:100AF8008E314A262300D001D101080022006B085C
:100B0800013EF80000306C3DF9007808860079084D
:100B18008700083081005030F8000030F900FF30BD
:100B28007805FA007F307905FB006B0886006C08B1
:100B3800870042317A08C03F7B08C13F6B088600B6
:100B48006C0887000C3081006B0886006C088700F1
:100B580081176008860061088700043081006008FA
:100B6800860061088700811708002000D01FCF2D5C
:100B78002300D801D80A4F08031DC52D8E314A26F7
:100B880085312300D001D10122006E08031D080021
:100B98008F312027080002302300D80022006B087C
:100BA800013EF80000306C3DF900780886007908AD
:100BB8008700083081005030F8000030F900FF301D
:100BC8007805FA007F307905FB006B0886006C0811
:100BD800870042317A08C03F7B08C13F6B08860016
:100BE8006C088700043081006B0886006C08870059
:100BF8008117C52DF900710803190B2E7935603E50
:100C0800860001308700403FFA00413F132E7935B6
:100C1800A73E860001308700403FFA00413FFB00B5
:100C28007A087B04031D1B2EF101F2010800FF3036
:100C38007205F5007F307305F6007A0886007B0898
:100C4800870042317508C03F7608C13F7A08013EE7
:100C5800F50000307B3DF6007508860076088700B1
:100C6800740881004030F5007A0886007B08870008
:100C7800750881057A0886007B08870081157A083F
:100C880086007B088700811771080319642E79355F
:100C9800603E860001308700403FF500413FF60086
:100CA80004307506F70000307606F8007935603EA6
:100CB8008600013087007708C03F7808C13F7C2E46
:100CC8007935A73E860001308700403FF500413F57
:100CD800F60004307506F70000307606F80079351E
:100CE800A73E8600013087007708C03F7808C13FDB
:100CF8007B08F2007A08F100080073304006031DF3
:100D0800A22E42302100E500E5308B319723863151
:100D180077082300C50001302100E4006408E507D6
:100D2800E5308B319723863177082300C400C3014F
:100D38008D31832501302300C70008006F3040063D
:100D4800031DB02E6E304106031DAC2E0130AD2EB2
:100D5800003089313E2108006D304006031DEC2E1D
:100D680042302100E600E6308B319723863178083F
:100D78002400A2007708A10001302100E4006408E3
:100D8800E607E6308B319723863178082400A400E3
:100D98007708A300E92E42302100E700E7308B31C5
:100DA8009723863178082400A6007708A50001302B
:100DB8002100E4006408E707E7308B319723863188
:100DC80078082400A8007708A7008D31832508003B
:100DD800683040060319CF2E76304006031D080000
:100DE800A00100308831A22086312030F100003087
:100DF8008A31DA220800803020005006031D0800DE
:100E0800C0302200E800652F81302200E6009030D3
:100E1800E7001230E9000030EA0008005208031D1C
:100E2800412F5208F100F201F135F20D9D307107A2
:100E380084001030723D80388500003F2200E600B3
:100E4800013FE7006708F2006608F1000230710709
:100E5800840072080318720A85000008E900670810
:100E6800F2006608F1000330710784007208031865
:100E7800720A85000008EA0008002200E80108005C
:100E8800033052020318412F5208F100F201F135E4
:100E9800F20D9330710784001030723D8038850060
:100EA800003F2200E600013FE7006608840067086B
:100EB80085000008F100F2017108E9007208EA00F3
:100EC800080020005308F100F2017208003A0319E3
:100ED8006E2F412F7108013A0319082F033A03199D
:100EE800122F013A0319442F412F08002200E81756
:100EF8000E302000EB009930EA00EC016A08860009
:100F08006B08870081010130EA070030EB3D0130B2
:100F1800E9006908EC0702306C02031C822F2030BC
:100F2800F1000030F2000030F300F4003030F5003A
:100F38000030F6008831B82087313D000E172000B8
:100F4800ED016D08B83E86000130870081016D080B
:100F5800B53E86000130870081010130E90069084B
:100F6800ED0703306D02031CA52FE130F1000130BD
:100F7800F2000030F300F4000230F5000030F60013
:100F88008831B82087313D000E1328302200E00058
:100F98000030E1002030FC007C08EB00EC01200070
:100FA80052082300E3006308031DDE2F10302100E0
:100FB800E900080001302000E3000030E400E330DD
:100FC800E5000130E6000130E7000030E800893133
:100FD800BD2120302100E9000800F1001F30230066
:100FE8009200710880389100151315140000000054
:060FF800230013080800AD
:1010C0002000911D60289111080064008001013109
:1010D000890B66280034FE0012001E00FE0B6C28EF
:1010E0000034303430343A34303430343A343034FC
:1010F00030340D34003422006D08031D08007208DE
:101100002300C2007108C1007308CB00CA01CA0ADB
:101110002200ED01ED0A080001302300B107003084
:10112000B23D0030B33D0030B43D5508031D08000A
:101130000130F1007108CD074D08031D0800FF3094
:10114000CD000800F1008B131F30230092007108BE
:101150008038910015131516151555309600AA30D4
:101160009600951400000000230015118B1708004D
:101170007208F8007108F7000130F5020030F63B04
:10118000750A0319760A031908007708860078089B
:101190008700730881000130F7070030F83DBC2854
:1011A0001215EF302000E90069083D0090058E140B
:1011B0002300D501D50ACD0175302000E3000030B1
:1011C000E4000030E500E6000030E700E800893187
:1011D000BD210800F3000830F400F5017308F200A7
:1011E0000730F236890BF12875357204F5000310CB
:1011F000F30D71087502031CFF287108F502013018
:10120000F402031DEE2875080800F501F601711CB3
:101210000D297308F5077408F63D0130F335F40D18
:10122000890B0E290130F236F10C890B1329710854
:101230007204031D07297608F2007508F100080002
:101240000830240095001D30920095160F302000C4
:10125000ED000030EE0009308A317722893100300C
:10126000ED00EE000A308A31772289310530ED0039
:101270000030EE0008308A31772208002100E300B8
:10128000630C2000031C0E1103180E1521006308C7
:10129000031D4F290F30E1000030E2005129E10128
:1012A000E20162082000EE00210061082000ED004C
:1012B00009308A31772208002300D50174302000DC
:1012C000E3000030E4000030E500E6000030E70015
:1012D000E8008931BD2189313D008E101211101DA9
:1012E0007829FB302000E90069083D0090056F294E
:1012F0002300CD0108002000E200781D8429F101BF
:1013000062088B3157238931F81C8B29F101F10ACE
:1013100062088B3157236208983EF900FA010E30BB
:10132000FA3D7908E0007A08E1006008860061086B
:101330008700780881000800F300F501710803199F
:10134000BB29F401F40AF11BAC290310F10D0130A3
:10135000F2007208F407A3290310F50D7108730257
:10136000031CB6297108F30275140310F10C013047
:10137000F402031DAC2975080800D1298A314922DD
:101380002300DE010830E000DF010030DD00003026
:10139000DC002530DB008030DA0008008C31C92405
:1013A00008006408003A0319D629DE296308013AC7
:1013B0000319BE29023A0319CE29DE290800181C98
:1013C000FC297C088600870180300106031DFA296C
:1013D0002200600886006108870084300106031D32
:1013E000FA297C08860087010C3081007C08860081
:1013F000870181173D001810DF30F100710890055A
:101400000800F9007208F8007108F7007908FA007E
:101410000130F3020030F43B730A0319740A031914
:10142000080077088600780887000108F600013078
:10143000F7070030F83D7A088600870176088100BA
:101440000130F5007508FA07082A2000EC0063084F
:10145000E800E9016808F7006908F8006C08EA008C
:10146000EB016A08F1006B08F2006708F4006608F7
:10147000F300893105218A317208FA007108F900F8
:101480008A31A62264087707E3006508783DE40006
:10149000080000302300DD000030DC004B30DB00B2
:1014A0000030DA00DE01DF010830E000CC011A3044
:1014B000F800013089317B218A311E30F80002307A
:1014C00089317B218A31F1012030F2000130F300B3
:1014D0004030F40002308531FE2572082300BE0042
:1014E0007108BD00BB01BC012200ED010800210014
:1014F000E0002000911124001614883160208A3108
:10150000C03024009100883160208A3121006008B9
:101510002000EF000230EF35FF3E031D8B2A6F35B0
:1015200024009100883160208A316E0824009100E7
:10153000883160208A316D08240091008831602054
:101540008A3124001615883160200800E101E2018B
:10155000770878040319D52AE001E00AF81BBA2AB3
:101560000130F735F80D890BB12A0130FB007B08FB
:10157000E007AE2A0130E135E20D890BBB2A78087D
:101580007A02031DC52A77087902031CCC2A770842
:10159000F9027808FA3B61140130F836F70C890B30
:1015A000CD2A0130E002031DBA2A6208F800610862
:1015B000F7000800F3008B13151315121F3092006B
:1015C00095161515F40173088038740723009100EF
:1015D00074087107F2007208860002308700010863
:1015E000930055309600AA30960095140000000034
:1015F0000130F2007208F4071F307402031CE32A62
:1016000073089F382300910071088600023087001C
:1016100002305F3F9300951255309600AA30960035
:10162000951400000000230015118B1708000230EC
:1016300023005806031D1F2B84312E240800D801D7
:101640005308031D552B22006B08013E2000E000CB
:10165000003022006C3D2000E10060088600610837
:101660008700083081005030E0000030E100FF309A
:101670006005E2007F306105E30022006B08860010
:101680006C088700423120006208C03F6308C13FF8
:1016900022006B0886006C0887000C3081006B0804
:1016A00086006C08870081170800D3010800F60047
:1016B0002030F7007108F2000130F235890B5D2B04
:1016C0007608F3000130F335FF3E031D632B7335BD
:1016D0007207F4000130F435FF3E031D6B2B7435A7
:1016E000F5007508F70777088600870181137108F0
:1016F000031D842B7635A73E8600013087007708CE
:10170000C03F0030C13F8D2B7635603E86000130F2
:1017100087007708C03F0030C13F77088600870107
:1017200001137708043E8600870101170800200096
:10173000E600E401E5016608860087010108E7008C
:10174000CB2B67088600023087003A30010203186D
:10175000D32B67088600023087000108E000E10112
:101760006508F2006408F1000A30F3000030F4006C
:10177000893105218B3160087107E2006108723DF3
:10178000E3006208D03EE400FF30633DE500013035
:10179000E0006008E7076708860002308700303005
:1017A00001020318A12B66088600870167088100E3
:1017B0006508F8006408F70008002D30D200220008
:1017C0006F08FD39031D192C6F363F392100E300E6
:1017D0000130E335FF3E031DE92B6335203EFC005D
:1017E0007C082200EB00EC0104306B06EB000030BB
:1017F0006C06EC007C0886008701010C890C0F390F
:101800000D3A031D162C7C08023E86008701403FDE
:10181000F100413FF2000830F3000030F400503096
:101820008A3101228B318C31752408008B311723CA
:101830000800FD306F052100E30004306306031D3E
:1018400008008E31B12608002000E2002300CC0100
:101850003D083E040319322C3D0886003E088700EF
:10186000811B732C3D0886003E0887004131200013
:10187000600801020318452C23003D0886003E083D
:101880008700413101082000E0002300CC01200046
:10189000600823004C020318642C4C0820006207E7
:1018A000E100610886000230870023004C08203EDA
:1018B0008400013085000008810001302000E10033
:1018C00061082300CC07472CF1012030F2000130E1
:1018D000F3004030F40002308531FE257208230009
:1018E000BE007108BD004C0808002300D901220089
:1018F000EE012300CF01CE01D301D8017F302100BA
:10190000E20022006008860061088700210062086A
:101910008105043022006006E00000306106E1002D
:101920007F302100E2002200600886006108870005
:10193000210062088105043022006006E0000030CA
:101940006106E1007F302100E20022006B08860082
:101950006C0887002100620881052200E801E90186
:10196000EA012300A201A301A4018F318F278C314A
:1019700003302000E3000030E4000030E500E60022
:101980000030E700E8008931BD218C3185316F25B9
:10199000080050081F39013A031D0800500E890C39
:1019A0000339013A031D0800540803190B2D540391
:1019B000031D08000B2D60302200E6000230E70016
:1019C0000830E9000030EA0068142200E817080037
:1019D00060302200E6000230E700E52C57082300C3
:1019E000A400200056082300A300DA30A000A501BF
:1019F000A601A2170800DA302200E6000130E70055
:101A00000730E9000030EA00C130E8000800520861
:101A10002300C900E52C5108F100F2017208003AD8
:101A20000319132D242D7108003A0319DB2C013AF8
:101A30000319E82C213A0319EE2C013A0319FB2C67
:101A4000033A0319072D242D08002000D801D901DD
:101A5000642D2200E81723005603031D782D200073
:101A6000D814782D2200E817782D2200E8172000DE
:101A700054080F39003A0319782DD41B4A2D540805
:101A80000F390907A73E860001308700403FF30069
:101A9000413F542D54080F390907603E860001303C
:101AA0008700403FF300413FF4007308860074084C
:101AB0008700811F782D7308860074088700011D38
:101AC000782D0130D800782D50081F39F100F2012F
:101AD0007208003A03196D2D782D7108003A031928
:101AE000292D013A0319322D033A0319352D782D8A
:101AF0002200E81F08005830E6000030E7006814B4
:101B00000230E90008000A30F1002300450889315D
:101B10009C218D31303EE4000A30F10045088831C7
:101B2000EA208D31303EE5000A30F1004408893169
:101B30009C218D31303EE7000A30F10044088831A5
:101B4000EA208D31303EE80017302000E300240009
:101B500026082000E500240025082000E4002400D9
:101B600028082000E700240027082000E6002300C2
:101B700045088A3125228D316408EE006308ED00A6
:101B800000308A3177228D313B30E3002400220877
:101B90002000E500240021082000E400240024089F
:101BA0002000E700240023082000E600230044086A
:101BB0008A3125228D316408EE006308ED00013082
:101BC0008A31772208000830F300003022006A02D0
:101BD0000830031969020318FB2D6908F30023007C
:101BE0005908031DF62DD901D90AFB2D5903031DF0
:101BF000FB2D0230D9007308F100F20171082200B8
:101C0000E9027208EA3B6008013EF1000030613DE4
:101C1000F20071088600720887007308810058304E
:101C20002300D7002200681C2C2E462E23005708C4
:101C30008600870122006608840067088500000886
:101C400081000130E6070030E73D0130F100710806
:101C50002300D7070130F302730803190800162E7A
:101C60002300570886008701220066088400670861
:101C70008500000881000130E6070030E73D0130B3
:101C8000F10071082300D7070130F302730803192C
:101C90000800302ECF01CE0102305806031D7C2EE5
:101CA00022006B08013EF40000306C3DF500740822
:101CB000860075088700083081005830F400003035
:101CC000F500FF307405F6007F307505F7006B08EE
:101CD00086006C08870042317608C03F7708C13F14
:101CE0006B0886006C088700483081006B0886000E
:101CF0006C0887008117080022006A08200057023C
:101D0000031D862E220069082000560203188F2E1C
:101D100057082200EA00200056082200E9008D3111
:101D2000E3255830F4000030F500FF307405F6006C
:101D30007F307505F7002200600886006108870083
:101D400042317608C03F7708C13F600886006108CD
:101D5000870048308100600886006108870081178D
:101D60000800220060088600610887000030011B1F
:101D70000130F80004306006E00000306106E10048
:101D8000083021006906031DD22E200052087F3939
:101D90003D00960016080319CF2E1030D02E0430C7
:101DA0002100E90023005803031D1C2F5830F400C4
:101DB0000030F500FF307405F6007F307505F70040
:101DC0002200600886006108870042317608C03F23
:101DD0007708C13F8D31E3258E310230230059064B
:101DE000031DFF2E22006008860061088700043072
:101DF0008100600886006108870081170800780864
:101E0000031D0F2F220060088600610887004830FC
:101E100081006008860061088700811708002200A1
:101E2000600886006108870008308100600886002D
:101E30006108870081170800A21BA213D8010800BF
:101E400023005108031D08000130D1005008031D74
:101E500008000130D00002305806031D422F220036
:101E600060088600610887004131810160088600B2
:101E7000610887004830810060088600610887009B
:101E8000811708005803031D0800D3017C0A86004F
:101E90008701083081005030F1000030F200FF303F
:101EA0007105F3007F307205F4007C08023E860065
:101EB00087017308C03F7408C13F7C088600870112
:101EC000043081007C08860087018117D301D30A82
:101ED00022006B08013EF10000306C3DF2007108F9
:101EE000860072088700083081005030F100003011
:101EF000F200FF307105F3007F307205F4006B08CB
:101F000086006C08870042317308C03F7408C13FE7
:101F10006B0886006C088700803081000800200074
:101F2000500E890C0339003A031D0800D32F2200FC
:101F3000E81708302100E90008008631FF26080074
:101F400087317A270800E3302200E6000130E700FD
:101F50006814E901E90AE81708008D312525080011
:101F600081317E21080020005408E13E2200E60075
:101F70000130A72F2200E81720005408E13E860018
:101F80000130870052088100080002302000E30081
:101F90000030E4000030E500E6000030E700E80033
:101FA0008931BD21080051082100E000E1016108EC
:101FB000003A0319DC2FFF2F6008003A0319AD2FF8
:101FC000013A0319B02F023A0319B02F063A031948
:101FD000972F033A03199D2F013A0319C52F0F3A82
:101FE0000319A32F013A0319A02F033A0319B32FA2
:101FF000013A0319BA2F073A0319FF2FFF2F0800E0
:102000000934023443340034023401340034C0341F
:10201000FA34093404340034003401340234023414
:1020200001340034053424340034103401340434D1
:1020300024340234023405342434063400340134A8
:102040000534243401340034013407340534813438
:1020500003340A34003402340934043401340034C3
:1020600002340A34003400340034073405340234B6
:1020700002344034003400340734053482340234EE
:10208000403400340034223403344B340034693497
:1020900000346E3400346734003420340034523459
:1020A00000346134003464340034693400346F34F3
:1020B000003420340034433400346F34003472343C
:1020C0000034703400342E3400341C34033454345F
:1020D00000344D3400344534003420340034493465
:1020E00000346E34003464340034693400346334B2
:1020F000003461340034743400346F34003472348A
:102100000034123401340034023402340034003418
:10211000083437341334EF34BE340034013401341E
:1021200002340034013499349034433490346534AB
:0E213000903404340334093404340034903401
:020000040001F9
:08000000FF3FFF3FFF3FFF3F00
:04000E00E40F8F3F2D
:00000001FF
